{
  "_format": "hh-sol-artifact-1",
  "contractName": "ExitPoolUniswap",
  "sourceName": "contracts/ExitPoolUniswap.sol",
  "abi": [
    {
      "inputs": [],
      "stateMutability": "nonpayable",
      "type": "constructor"
    },
    {
      "inputs": [],
      "name": "LINK",
      "outputs": [
        {
          "internalType": "address",
          "name": "",
          "type": "address"
        }
      ],
      "stateMutability": "view",
      "type": "function"
    },
    {
      "inputs": [],
      "name": "WETH",
      "outputs": [
        {
          "internalType": "address",
          "name": "",
          "type": "address"
        }
      ],
      "stateMutability": "view",
      "type": "function"
    },
    {
      "inputs": [
        {
          "internalType": "uint256",
          "name": "",
          "type": "uint256"
        }
      ],
      "name": "deposits",
      "outputs": [
        {
          "internalType": "address",
          "name": "owner",
          "type": "address"
        },
        {
          "internalType": "uint128",
          "name": "liquidity",
          "type": "uint128"
        },
        {
          "internalType": "address",
          "name": "token0",
          "type": "address"
        },
        {
          "internalType": "address",
          "name": "token1",
          "type": "address"
        }
      ],
      "stateMutability": "view",
      "type": "function"
    },
    {
      "inputs": [
        {
          "internalType": "uint256",
          "name": "tokenId",
          "type": "uint256"
        }
      ],
      "name": "exitLiquidity",
      "outputs": [
        {
          "internalType": "uint256",
          "name": "amount0",
          "type": "uint256"
        },
        {
          "internalType": "uint256",
          "name": "amount1",
          "type": "uint256"
        }
      ],
      "stateMutability": "nonpayable",
      "type": "function"
    },
    {
      "inputs": [],
      "name": "nonfungiblePositionManager",
      "outputs": [
        {
          "internalType": "contract INonfungiblePositionManager",
          "name": "",
          "type": "address"
        }
      ],
      "stateMutability": "view",
      "type": "function"
    },
    {
      "inputs": [],
      "name": "nonfungiblePositionManagerAddress",
      "outputs": [
        {
          "internalType": "address",
          "name": "",
          "type": "address"
        }
      ],
      "stateMutability": "view",
      "type": "function"
    },
    {
      "inputs": [
        {
          "internalType": "address",
          "name": "operator",
          "type": "address"
        },
        {
          "internalType": "address",
          "name": "",
          "type": "address"
        },
        {
          "internalType": "uint256",
          "name": "tokenId",
          "type": "uint256"
        },
        {
          "internalType": "bytes",
          "name": "",
          "type": "bytes"
        }
      ],
      "name": "onERC721Received",
      "outputs": [
        {
          "internalType": "bytes4",
          "name": "",
          "type": "bytes4"
        }
      ],
      "stateMutability": "nonpayable",
      "type": "function"
    },
    {
      "inputs": [],
      "name": "poolFee",
      "outputs": [
        {
          "internalType": "uint24",
          "name": "",
          "type": "uint24"
        }
      ],
      "stateMutability": "view",
      "type": "function"
    },
    {
      "inputs": [],
      "name": "userAddress",
      "outputs": [
        {
          "internalType": "address",
          "name": "",
          "type": "address"
        }
      ],
      "stateMutability": "view",
      "type": "function"
    }
  ],
  "bytecode": "0x60a06040526000805473c36442b4a4522e871399cd717abdd847ab11fe886001600160a01b0319918216179091556001805473326c977e6efc84e512bb9c30f76e30c160ed06fb9083161790556002805473b4fbf271143f4fbf7b91a5ded31805e42b2208d692169190911762ffffff60a01b191661017760a31b17905534801561008957600080fd5b50600380546001600160a01b031916331790556000546001600160601b031960609190911b1660805260805160601c610a806100de60003960008181610220015281816102d601526103880152610a806000f3fe608060405234801561001057600080fd5b50600436106100935760003560e01c8063ad5c464811610066578063ad5c4648146100f3578063b02c43d0146100fb578063b44a27221461011e578063c8cdf64014610126578063e4128fb31461014757610093565b8063089fe6aa14610098578063150b7a02146100b65780631b6b6d23146100d65780635bfccac9146100eb575b600080fd5b6100a061014f565b6040516100ad9190610a0b565b60405180910390f35b6100c96100c43660046106d2565b610161565b6040516100ad9190610947565b6100de6101b1565b6040516100ad91906108e6565b6100de6101c0565b6100de6101cf565b61010e610109366004610793565b6101de565b6040516100ad94939291906108fa565b6100de61021e565b610139610134366004610793565b610242565b6040516100ad929190610a24565b6100de610372565b600254600160a01b900462ffffff1681565b600080546001600160a01b031633146101955760405162461bcd60e51b815260040161018c9061095c565b60405180910390fd5b61019f8685610381565b50630a85bd0160e11b95945050505050565b6001546001600160a01b031681565b6000546001600160a01b031681565b6002546001600160a01b031681565b60046020526000908152604090208054600182015460028301546003909301546001600160a01b03928316936001600160801b0390921692918216911684565b7f000000000000000000000000000000000000000000000000000000000000000081565b60008181526004602052604081205481906001600160a01b0316331461027a5760405162461bcd60e51b815260040161018c90610985565b600083815260046020818152604080842060010154815160a081018352888152928301859052828201859052606083018590524260808401529051630624e65f60e11b81526001600160801b0390911693926001600160a01b037f00000000000000000000000000000000000000000000000000000000000000001691630c49ccbe91610309918591016109c8565b6040805180830381600087803b15801561032257600080fd5b505af1158015610336573d6000803e3d6000fd5b505050506040513d601f19601f8201168201806040525081019061035a91906107ab565b909550935061036a868686610548565b505050915091565b6003546001600160a01b031681565b60008060007f00000000000000000000000000000000000000000000000000000000000000006001600160a01b03166399fbab88856040518263ffffffff1660e01b81526004016103d29190610a1b565b6101806040518083038186803b1580156103eb57600080fd5b505afa1580156103ff573d6000803e3d6000fd5b505050506040513d601f19601f8201168201806040525081019061042391906107ce565b5050505097505050509450945050506040518060800160405280866001600160a01b03168152602001826001600160801b03168152602001846001600160a01b03168152602001836001600160a01b03168152506004600086815260200190815260200160002060008201518160000160006101000a8154816001600160a01b0302191690836001600160a01b0316021790555060208201518160010160006101000a8154816001600160801b0302191690836001600160801b0316021790555060408201518160020160006101000a8154816001600160a01b0302191690836001600160a01b0316021790555060608201518160030160006101000a8154816001600160a01b0302191690836001600160a01b031602179055509050505050505050565b6000838152600460205260409020805460028201546003909201546001600160a01b03918216928216911661057e828487610591565b610589818486610591565b505050505050565b600080846001600160a01b031663a9059cbb60e01b85856040516024016105b992919061092e565b60408051601f198184030181529181526020820180516001600160e01b03166001600160e01b03199094169390931790925290516105f791906108ad565b6000604051808303816000865af19150503d8060008114610634576040519150601f19603f3d011682016040523d82523d6000602084013e610639565b606091505b5091509150818015610663575080511580610663575080806020019051810190610663919061076c565b61067f5760405162461bcd60e51b815260040161018c906109ac565b5050505050565b805161069181610a32565b919050565b8051600281900b811461069157600080fd5b80516001600160801b038116811461069157600080fd5b805162ffffff8116811461069157600080fd5b6000806000806000608086880312156106e9578081fd5b85356106f481610a32565b9450602086013561070481610a32565b935060408601359250606086013567ffffffffffffffff80821115610727578283fd5b818801915088601f83011261073a578283fd5b813581811115610748578384fd5b896020828501011115610759578384fd5b9699959850939650602001949392505050565b60006020828403121561077d578081fd5b8151801515811461078c578182fd5b9392505050565b6000602082840312156107a4578081fd5b5035919050565b600080604083850312156107bd578182fd5b505080516020909101519092909150565b6000806000806000806000806000806000806101808d8f0312156107f0578687fd5b8c516bffffffffffffffffffffffff8116811461080b578788fd5b9b5061081960208e01610686565b9a5061082760408e01610686565b995061083560608e01610686565b985061084360808e016106bf565b975061085160a08e01610696565b965061085f60c08e01610696565b955061086d60e08e016106a8565b94506101008d015193506101208d0151925061088c6101408e016106a8565b915061089b6101608e016106a8565b90509295989b509295989b509295989b565b60008251815b818110156108cd57602081860181015185830152016108b3565b818111156108db5782828501525b509190910192915050565b6001600160a01b0391909116815260200190565b6001600160a01b0394851681526001600160801b039390931660208401529083166040830152909116606082015260800190565b6001600160a01b03929092168252602082015260400190565b6001600160e01b031991909116815260200190565b6020808252600f908201526e1b9bdd0818481d5b9a5d8cc81b999d608a1b604082015260600190565b6020808252600d908201526c2737ba103a34329037bbb732b960991b604082015260600190565b60208082526002908201526114d560f21b604082015260600190565b600060a082019050825182526001600160801b03602084015116602083015260408301516040830152606083015160608301526080830151608083015292915050565b62ffffff91909116815260200190565b90815260200190565b918252602082015260400190565b6001600160a01b0381168114610a4757600080fd5b5056fea26469706673582212209a3f2090dbba50fd2b18ca3c6f4434c885c0332b89b3b3f9325462b710f26f5564736f6c63430008000033",
  "linkReferences": {},
  "deployedLinkReferences": {}
}